S01F00004368726973746D6173204F726E616D656E7420323031392E7372656307
S113000009C00EC00DC00CC00BC00AC009C008C096
S113001007C006C011241FBECFE9CDBF19D046C00A
S1130020EFCFC19AC1980895C29AC2980895CF9308
S1130030DF93D82FC8E0DD2314F4C39A01C0C3981A
S1130040F0DFDD0FC150B9F7EFDFDF91CF910895F5
S113005087B38E6087BB18BABC9A80E0E8DF01E002
S113006011E02FEB84ED91E0215080409040E1F7C6
S113007000C00000C0E0D0E0802FD9DFC4982196F2
S11300802FEB84ED91E0215080409040E1F700C0D7
S11300900000812F0C2E01C0880F0A94EAF7C830A3
S11300A0D10559F780E0C3DFC49ADBCFF894FFCFC2
S9030000FC
